:400000000020002011000000E9020000E902000010B500F071F9C04610B51222164B1A6000F058FA302000F073FB144A144B1A60B8225201134B1A60134B144919601449E3
:400040000A60144A1A6080221206134B1A608022D202124B1A604122114B1A60013A114B1A601149082000F09DFA082000F08EFA00220E4B1A6010BD3000104006000080A4
:4000800004010B40040301400000014041FF00800003014040FF008008010B4000010B4058010140500101407D0900000C020B4070B572B601223E4B1A7000240FE03D48DE
:4000C0006200131959000B00411889881A5AC31858880004104300F0FDF80134E4B2022CEDD9002411E0334EA2001319590071188D8AC88A000428430A8B498B0904114392
:40010000802200F0EDF80134E4B2002CEBD0294920312948443000F0B3F8C0229201274B1A60274A274B1A6099231B04264A13608021C903254A1160254A1360254A1360C6
:40014000254A1360254A1360254A264B1A600121254B1960254803783C22934314221343DBB20370224A107816230343DBB21370204B19600322204B1A60013A1F4B1A601E
:4001800006321F4B1A60C42212011E4B1A6009221D4B1A60CA321D4B1A601D4A1D4B1A601D4B1960FFF738FF00F084F870BDC0461C700F40140B0000140F00000001024006
:4001C00033EE03330003024010500F4018500F4020500F4040500F4050500F4070500F4000000D4B78500F402000104001700F4000700F4008000440000D04400C0D044009
:4002000000010440080104400802044000030440B6EDD800080304400804044010B5064C2378002B07D1054B002B02D0044800E000BF0123237010BD4801002000000000A3
:40024000100B0000084B10B5002B03D00749084800E000BF07480368002B00D110BD064B002BFBD09847F9E7000000004C010020100B0000C00000200000000062B6FEE720
:40028000F0B50025002711E0BB00C658F3B2FF22964308E06A008A181478A419527822700135013BDBB2002BF4D10137112FEBD9F0BDC0460323044A1360044A13600022A3
:4002C000034B1A607047C0463000304030003140000E3F4010B50A00002100F010FC10BD10B500F003FC10BD10B500F0D3FB03680C2B00D1FEE7FEE770B50F4E0F4D13E0E0
:4003000029686B68AC68002202E001C901C30432A242FAD1E868002202E0002102C304328242FAD11035013E002EE9D100F0B8FBFFF7A4FFFEE7C0460100000074100000B7
:4003400010B50E4A136801218B43136000230AE0032B03D89A000A49505800E009489900094A885001332F2BF2D9FFF7A1FE034A116801230B43136010BDC0460000104026
:4003800000000000E902000000000020074B1B78272B05D8064B1B78DBB2064A136004E0054B1B78DBB2034A1360704702F3FF0F42F3FF0F20FF0B40C1F1FF0F00230AE0A2
:4003C000204A12683F210A401F49C95C8A4201D1033303E001332D2BF2D903231B4A12781B2A16D8302B05D1194B1B78DBB2194A136006E0182B04D1174B1B78DBB2154A22
:40040000136016490B681F229343173A13430B6016E0302B05D1124B1B78DBB20D4A136006E0182B04D10F4B1B78DBB2094A13600A4A13681F218B430B4909780B4313602F
:400440007047C0462CFF0B402010000002F3FF0F3FF3FF0F28FF0B403EF3FF0F34FF0B40C3F1FF0FC2F1FF0FC0F1FF0F00230AE00D4A12683F210A400C49C95C8A4201D1C5
:40048000033303E001332D2BF2D9032308490868084A02400A60084A944663441B78DBB2064A13607047C0462CFF0B402010000000002240FFFFFFBF4DF3FF0F28FF0B40F0
:4004C000034B18688023DB05184000D0012070470000224010B50B4A136801218B431360094B1A68094B1A60094A12685A60FFF765FFFFF74BFF074A116802230B431360DC
:4005000010BDC04650000C4034FF0B406401002020FF0B4024002C4030B500230AE0134A12683F210A401249C95C8A4201D1033303E001332D2BF2D903230E490A6802203D
:4005400082430A600C4C21681F2291430B4805682A400A4322604168094A1160094A944663441B78DBB2084A136030BD2CFF0B402010000024002C4034FF0B406401002011
:4005800020FF0B404DF3FF0F28FF0B401F2318401E3B8340014A13607047C04600E100E001BE704770B504000D001F2802D90020FFF7F6FF1034A40080239B059C46644491
:4005C0002068256070BDC04610B5040006E0084B586800F025FA074B9C46644480231B029C42F4D8024B9868604300F019FA10BDC40000200080FFFF70B582B000F068F9DA
:40060000002862D000F015FA0500314A116801230B43136000230AE02E4A12683F210A402D49C95C8A4201D1033303E001332D2BF2D903230021294A1160294A1268D20641
:4006400006D1274802681F318A4313390A430260244C2168244A1140244A5A438023DB019C466244D20B013A5205520D0B001343A0225203134323601D4B1B6801933020FA
:4006800000F0DEF91B4A13688021C9050B4313602668194B1E40002407E00120FFF794FF1034A30533430F4A1360EE2CF5D90120FFF78AFFFF239B051E430A4B1E60019A17
:4006C0000B4B1A60280000F0B8F902B070BDC04650000C402CFF0B402010000028FF0B4034FF0B400800224000F800C040420F003000104000002240FFFF3FC010B5034BA5
:400700001B7B584300F08CF910BDC046C4000020F0B55F4656464D464446F0B483B0040000F087F90190FFF7CBFE002804D0FFF79DFE01239A4601E000239A46182C01D034
:40074000302C04D1FFF7E8FE01239B4601E000239B46E61E2D2E74D8454B1B78DBB29C4208D8444B1B78DBB29946434B1B78DBB2984631E0414B1B78DBB29C4208D8404B49
:400780001B78DBB299463F4B1B78DBB2984623E03D4B1B78DBB29C4208D83C4B1B78DBB299463B4B1B78DBB2984615E0394B1B78DBB29C4208D8384B1B78DBB29946374BE4
:4007C0001B78DBB2984607E0354B1B78DBB29946344B1B78DBB29846334B9F5D2F2F09D92A2C07D91922314B1A60052000F018F9192503E02D4B1D683F231D40BD4206D916
:40080000294B9A5D294B1A60052000F009F9254B9C4664442378DBB2254A1360254B4A461A60254B42461A600520FFF767FFBD420AD21D4B9A5D1D4B1A60052000F0F0F8BE
:4008400002E00020FFF7ACFE5346012B01D1FFF7D3FE5B46012B01D1FFF73CFE019800F0ECF803B03CBC90469946A246AB46F0BD40F3FF0F41F3FF0F42F3FF0F43F3FF0F4C
:4008800044F3FF0F45F3FF0F46F3FF0F47F3FF0F48F3FF0F49F3FF0F4AF3FF0F4BF3FF0F4CF3FF0F4DF3FF0F201000002CFF0B4028FF0B401CFF0B4020FF0B40034B1868A3
:4008C000C0231B02184000D00120704700010B40034B1B68002B01DA012000E0002070470000224010B500F0A4F8044A1368C02109020B43136000F0A0F810BD00010B4033
:4009000010B500F096F808490A68084B1A408024E40122430A600A6813408022120213430B6000F08AF810BD00010B40FF3FFFFF70B5050000F07DF80400FFF7BFFF00283A
:4009400003D0FFF7DDFF012100E0002108482840084A1568084B2B40184310601368012901D1FFF7BFFF200000F067F870BDC0460404040010020B40FBFBFBFF10B5244B45
:400980001B685B0715D5234B5B685B070ED5224B596A042001401F4C62688A4362605A6A82435A629B69002B00D098470420FFF7BFFF174B1B685B0518D5164B5B685B05E8
:4009C00010D5154B596A8022D2001140114842688A434260596A114A0A405A62DB69002B00D098478020C000FFF7A2FF084B1B685B030CD5074B5B685B0304D5064B1B6A48
:400A0000002B00D098478020C002FFF791FF10BD10020B40D800002084010020FFFBFFFF0230800803D00138FDD1C046C046C0467047EFF3108072B6704780F310887047C5
:400A400070B50400FFF7F5FF0500102C05D8104A136803218B43136016E0202C07D80C490B6803229343023A13430B600CE0302C07D807490B6803229343013A13430B6049
:400A800002E00020FFF78CFD2800FFF7D6FF70BD30001040014B18687047C046400100200E4B70B500251E000D4CE41AA410A54204D0AB00F35898470135F8E700F0C8FA08
:400AC000084B00251E00084CE41AA410A54204D0AB00F35898470135F8E770BD5C1000005C1000005C10000064100000002310B59A4203D0CC5CC4540133F9E710BD030015
:400B00008218934202D019700133FAE7704700000000000000300F40800400350F40000300400F400008000080340F40A00F00008000000080788147830F84071A022401AE
:400B400025012F013001310132023E013F01400241044220440145CE46FB470D481F49FF4AFF4BFF4C224EF04F0C508C51105420580459045A245B045C085D185F116840B2
:400B800069016AC06B0180018101840292089501960C99019E01A101A202A60CA804AF01B00CB101B402B601BE50BF01D441D804D904DB04DC03DD10DF01040609100D0A11
:400BC0000F0110201414164018101B011D021F912080260128022B102E4137143E024001411043024A505060520458015C485E206104630A672078208F84C030C2B2C4746C
:400C0000CA9ACC60CE80D00DD671D84EDE0403020A010E0413011402160418011E0222012C0430013406350137023E115409580459045B045C105D305F01810489808A3C6D
:400C40008D7093809524974899809A029C019D80A002A204A402A52EA608A751A802A919AA10AB22AC20AE02B001B307B580B63EB778B980BB08BE41BF10D602D720D8044F
:400C8000D904DB04DC30DD30DF01001004800510088009100A0A0DA00E100F2010A2111014021640170118011B031C401F202158222824062520281430A231083701399183
:400CC0003A013F015A405B405D845E025F12628066806A416B147202818488028A018D809090930294479520964197019A049C3C9D049E429F14A040A241A518A712B0239B
:400D0000C0C2C2E3C49FCA06CC8FCE8DD6F0D818E020560257205B245D805E085F11060107540C100D020E010F10140416021C801D021F28251427802C142E602F28358045
:400D4000360A37903CA03E0A4414458047024D054E084F1056195D205F40630264086510664068A3691078A079208202830489108A0491809249934295149610970198803D
:400D800099209A069B569C3C9D149EC1A180A208A301A4A2A504A680AB20AD01AE20AF50B040B120B240B510C0F0C2F0C4C0CA70CCF0CEF0D0F0D220D630D838DE0CE4206F
:400DC000EC10000D021004010602070208020A0D0C1D0D020F011402160818021A041C1D2210241D281D2F01320F341037033A083E103F405440580459045B045C035D3066
:400E00005F018201850189188A018B608E028F02910293049548973099289A049B509C049D109E029F68A001A304A401A801AF01B001B206B306B501B778BB80BE05BF14E7
:400E4000D608D804D904DB04DC30DD10DF01000201A0020404100622074009400A080C100E010F1010A0111015011640171418201A401C101F1020202290270228802A8090
:400E80002F01301032883302380839803A203D803E04580859245A4060086301665067206C046D806E106F02801082108302841086809191920D931296109701989099808F
:400EC0009A369B549D04A0A1A208A680A910AA80AC10AE01C0FBC2E3C47ECA19CC0FCE5ED60CD87CE00CE282E4056801DA40030457808804A401C040D440000807808B80F8
:400F0000A405AB80B704C030EE208801A4010008C00802108F10B004C008E208EA0498019A10A710B001EC040F202D08572258015E026710820183228610871089089801FA
:400F40009A10A710C204CA01D402D607D801E201010A100A120A000004000F403F300F402A310F403E320F4044330F4006340F4052350F4046360F404E370F4002400F4000
:400F800006410F4008420F4002430F4002440F4006450F4005460F4014470F4003600F40980402009860020002049800020400003800C004FC5603092104D8009A0100001B
:400FC00000000000000A0010130764389A040000E07F13080F02000000022200000000143602400001DEF0CB3BFFFFFF2200F00804000000000008000404040433130001F9
:401000000000C00040011011C00100114001400100000000000000000000000000000000030405060708090A0B0C0E0F101112131415161718191B1C1D1E1F2021222325C9
:40104000262728292A2B2E2F3031323334354300F8B5C046F8BC08BC9E4670474502000041030000F8B5C046F8BC08BC9E4670471D02000088100000C00000208800000078
:40108000680000000000000000000000010000000000C05D80BB000030000000006CDC02F000000004040400000000000000000000000000000000000000000000000000F9
:4010C00000000000000000004E1000000000000000000000000000000000000000000000000000000000000000000000000000000000000000000000000000000000000092
:401100000000000000000000E000002000000000000000000000000000000000000000000000000000000000000000000000000000000000000000000000000000000000AF
:40114000000000000000000000000000000000000000000000000000000000000000000000000000000000000000000000000000000000000000000000000000000000006F
:40118000000000000000000000000000000000000000000000000000000000000000000000000000000000000000000000000000000000000000000000000000000000002F
:4011C00000000000000000000000000000000000000000000000000000000000000000000000000000000000000000000000000000000000000000000000000000000000EF
:4012000000000000000000000000000000000000000000000000000000000000000000000000000000000000000000000000000000000000000000000000000000000000AE
:0200000490303A
:020000002908CD
:0200000490402A
:200000000000000000000000000000000000000000000000000000000000000000000000E0
:0200000490501A
:0C0000000002100011A0000110053AA839
:0200000490600A
:0100000001FE
:00000001FF